S01C0000466F6375736D6F746F72636F6E74726F6C6C65722E7372656393
S11300000C9434000C9446000C9446000C94460066
S11300100C9446000C9446000C9446000C94460044
S11300200C9446000C9446000C9446000C946A0010
S11300300C9446000C9446000C9446000C94460024
S11300400C9446000C9446000C9446000C94460014
S11300500C9446000C9446000C9446000C94460004
S11300600C9446000C94460011241FBECFEFD8E038
S1130070DEBFCDBF21E0A0E0B1E001C01D92AC30F5
S1130080B207E1F70E9403010C9480030C94000072
S113009081E090E09093890080938800EFE6F0E09F
S11300A0808182608083E1E8F0E080818A608083DF
S11300B07894259A559A569A579A20982198ECE75D
S11300C0F0E0808180648083EAE7F0E080818768E3
S11300D0808308951F920F920FB60F9211242F93CD
S11300E08F939F93AF93BF938091060190910701E3
S11300F0A0910801B09109010197A109B109809368
S1130100060190930701A0930801B093090180911F
S1130110060190910701A0910801B0910901892B72
S11301208A2B8B2B91F45D9A8091010190910201AD
S1130130A0910301B09104018093060190930701FB
S1130140A0930801B093090101C05D9880910A0150
S113015090910B01019690930B0180930A01809179
S11301600A0190910B018838934139F481E080931E
S1130170050110920B0110920A0195B180E28927C2
S113018085B9BF91AF919F918F912F910F900FBE21
S11301900F901F901895ECE7F0E08081807F8083BA
S11301A0EAE7F0E0808180648083808186FDFDCF72
S11301B0809178002091790090E0922B08958BB182
S11301C080748BB908955E9A0895811522E0920790
S11301D010F08FEF91E0BC0180E090E00E94850276
S11301E020E030E040EA51E40E94130320E030E8CC
S11301F04FEF53E40E94E4012DEC3CEC4CEC5DE346
S11302000E94780108950E9448000E94E3001FEFB5
S1130210D1E0809105018823E1F3109205010E9449
S1130220CB000E94E50020E030E040E251E40E946F
S1130230E40120E030E040EA52E40E94130320E0AD
S113024030E040EA51E40E94E40120E030E048E478
S113025055E40E9413039B01AC0160E070E080E868
S11302609FE30E94E4012DEB37E346E056E30E944E
S1130270E4010E945602609301017093020180938D
S1130280030190930401289B03C05E9ACD2F1EC0E6
S1130290299B27C05E98C12F19C00E94DF0080915E
S11302A0010190910201A0910301B0910401809396
S11302B0060190930701A0930801B093090103C0BC
S11302C00E94E300C0E0C0930001A3CF2C2F30E0D4
S11302D080910001082E000C990B2817390799F317
S11302E0DCCF809100018111EBCFC0E0ECCF5058FE
S11302F0BB27AA270E948F010C94D9020E94CB022B
S113030038F00E94D20220F039F49F3F19F426F409
S11303100C94C8020EF4E095E7FB0C94C202E92F9A
S11303200E94EA0258F3BA17620773078407950715
S113033020F079F4A6F50C940C030EF4E0950B2E42
S1130340BA2FA02D0B01B90190010C01CA01A00123
S11303501124FF27591B99F0593F50F4503E68F17E
S11303601A16F040A22F232F342F4427585FF3CFBF
S1130370469537952795A795F0405395C9F77EF490
S11303801F16BA0B620B730B840BBAF09150A1F0D9
S1130390FF0FBB1F661F771F881FC2F70EC0BA0F5F
S11303A0621F731F841F48F4879577956795B795E7
S11303B0F7959E3F08F0B0CF9395880F08F09927E2
S11303C0EE0F9795879508950E94F8010C94D90231
S11303D00E94D20258F00E94CB0240F029F45F3F01
S11303E029F00C94C20251110C940D030C94C80210
S11303F00E94EA0268F39923B1F3552391F3951B04
S1130400550BBB27AA2762177307840738F09F5F31
S11304105F4F220F331F441FAA1FA9F335D00E2E9E
S11304203AF0E0E832D091505040E695001CCAF70B
S11304302BD0FE2F29D0660F771F881FBB1F2617CE
S113044037074807AB07B0E809F0BB0B802DBF01A5
S1130450FF2793585F4F3AF09E3F510578F00C9474
S1130460C2020C940D035F3FE4F3983ED4F38695E7
S113047077956795B795F7959F5FC9F7880F911D95
S11304809695879597F90895E1E0660F771F881F81
S1130490BB1F621773078407BA0720F0621B730B34
S11304A0840BBA0BEE1F88F7E09508950E94F202C0
S11304B088F09F5798F0B92F9927B751B0F0E1F021
S11304C0660F771F881F991F1AF0BA95C9F714C0D1
S11304D0B13091F00E940C03B1E008950C940C0328
S11304E0672F782F8827B85F39F0B93FCCF386950A
S11304F077956795B395D9F73EF490958095709567
S113050061957F4F8F4F9F4F0895E89409C097FBE3
S11305103EF490958095709561957F4F8F4F9F4FD6
S11305209923A9F0F92F96E9BB279395F69587951A
S113053077956795B795F111F8CFFAF4BB0F11F4DD
S113054060FF1BC06F5F7F4F8F4F9F4F16C0882384
S113055011F096E911C0772321F09EE8872F762FBA
S113056005C0662371F096E8862F70E060E02AF0FB
S11305709A95660F771F881FDAF7880F96958795E7
S113058097F9089597F99F6780E870E060E008950F
S11305909FEF80EC089500240A9416161706180697
S11305A00906089500240A94121613061406050673
S11305B00895092E0394000C11F4882352F0BB0F04
S11305C040F4BF2B11F460FF04C06F5F7F4F8F4F67
S11305D09F4F089557FD9058440F551F59F05F3FA2
S11305E071F04795880F97FB991F61F09F3F79F051
S11305F087950895121613061406551FF2CF4695D3
S1130600F1DF08C0161617061806991FF1CF869554
S11306107105610508940895E894BB276627772738
S1130620CB0197F908950E9426030C94D9020E94E5
S1130630CB0238F00E94D20220F0952311F00C94E2
S1130640C2020C94C80211240C940D030E94EA0205
S113065070F3959FC1F3950F50E0551F629FF00111
S1130660729FBB27F00DB11D639FAA27F00DB11D2A
S1130670AA1F649F6627B00DA11D661F829F2227B3
S1130680B00DA11D621F739FB00DA11D621F839F3A
S1130690A00D611D221F749F3327A00D611D231F10
S11306A0849F600D211D822F762F6A2F11249F575E
S11306B050409AF0F1F088234AF0EE0FFF1FBB1F61
S11306C0661F771F881F91505040A9F79E3F510520
S11306D080F00C94C2020C940D035F3FE4F3983E47
S11306E0D4F3869577956795B795F795E7959F5FCA
S11306F0C1F7FE2B880F911D9695879597F908955C
S1070700F894FFCF97
S9030000FC
