S01C0000466F6375736D6F746F72636F6E74726F6C6C65722E7372656393
S11300000C9434000C9446000C9446000C94460066
S11300100C9446000C9446000C9446000C94460044
S11300200C9446000C9446000C9446000C946A0010
S11300300C9446000C9446000C9446000C94460024
S11300400C9446000C9446000C9446000C94460014
S11300500C9446000C9446000C9446000C94460004
S11300600C9446000C94460011241FBECFEFD8E038
S1130070DEBFCDBF21E0A0E0B1E001C01D92A03100
S1130080B207E1F70E94AF000C948C030C940000BB
S113009080E590E09093890080938800EFE6F0E09B
S11300A0808182608083E1E8F0E0808189608083E0
S11300B07894259A559A569A579A20982198ECE75D
S11300C0F0E0808180648083EAE7F0E080818768E3
S11300D0808308951F920F920FB60F9211248F936D
S11300E081E0809302018F910F900FBE0F901F90BB
S11300F01895ECE7F0E08081807F8083EAE7F0E008
S1130100808180648083808186FDFDCF809178002A
S11301102091790090E0922B08955F9808955F9A5A
S11301200895811524E0920710F08FEF93E0BC014D
S113013080E090E00E94910220E030E040E751E44A
S11301400E941F0320E030EC4FE754E40E94F001CA
S11301502DEC3CEC4CE45DE30E94840108950E9484
S113016048000E948F00FF24F394C8EBDBE00FEFFC
S11301701F2D80910901882309F47DC01092090183
S11301800E9479000E94910020E030E040E251E4B6
S11301900E94F00120E030E040EA52E40E941F0394
S11301A020E030E040EA51E40E94F00120E030E039
S11301B048E455E40E941F039B01AC0160E070E039
S11301C080E89FE30E94F0012CEA35EC47EA56E30D
S11301D00E94F0010E94620260930501709306017F
S11301E0809307019093080110920301189B05C0A6
S11301F0109303015E9A2D9A06C0199B25C00093A3
S113020003015E982D9A809103018823E9F00E94EE
S11302108D009091030180910401981781F08091E1
S1130220050190910601A0910701B0910801809306
S11302300A0190930B01A0930C01B0930D0110924D
S113024001011092000113C08091000190910101FD
S113025001969093010180930001883B9B4030F00C
S11302600E948F00D0930101C09300012D988091CA
S113027003018093040180910201882309F479CF5A
S11302801092020180910A0190910B01A0910C013E
S1130290B0910D010197A109B10980930A019093CE
S11302A00B01A0930C01B0930D01892B8A2B8B2B8E
S11302B0A9F48091030181115D9A809105019091C7
S11302C00601A0910701B091080180930A0190935F
S11302D00B01A0930C01B0930D0101C05D988091B6
S11302E00E0190910F01019690930F0180930E01DE
S11302F0803D974009F03DCFF092090110920F0123
S113030010920E0136CF5058BB27AA270E949B019A
S11303100C94E5020E94D70238F00E94DE0220F01D
S113032039F49F3F19F426F40C94D4020EF4E095AA
S1130330E7FB0C94CE02E92F0E94F60258F3BA1799
S1130340620773078407950720F079F4A6F50C94E7
S113035018030EF4E0950B2EBA2FA02D0B01B90152
S113036090010C01CA01A0011124FF27591B99F027
S1130370593F50F4503E68F11A16F040A22F232F33
S1130380342F4427585FF3CF469537952795A79583
S1130390F0405395C9F77EF41F16BA0B620B730B2A
S11303A0840BBAF09150A1F0FF0FBB1F661F771F9B
S11303B0881FC2F70EC0BA0F621F731F841F48F450
S11303C0879577956795B795F7959E3F08F0B0CFD9
S11303D09395880F08F09927EE0F979587950895C0
S11303E00E9404020C94E5020E94DE0258F00E946E
S11303F0D70240F029F45F3F29F00C94CE0251114A
S11304000C9419030C94D4020E94F60268F3992305
S1130410B1F3552391F3951B550BBB27AA276217FC
S11304207307840738F09F5F5F4F220F331F441F09
S1130430AA1FA9F335D00E2E3AF0E0E832D091503D
S11304405040E695001CCAF72BD0FE2F29D0660F2A
S1130450771F881FBB1F261737074807AB07B0E86D
S113046009F0BB0B802DBF01FF2793585F4F3AF073
S11304709E3F510578F00C94CE020C9419035F3F13
S1130480E4F3983ED4F3869577956795B795F795F9
S11304909F5FC9F7880F911D9695879597F90895E1
S11304A0E1E0660F771F881FBB1F6217730784077D
S11304B0BA0720F0621B730B840BBA0BEE1F88F78C
S11304C0E09508950E94FE0288F09F5798F0B92F96
S11304D09927B751B0F0E1F0660F771F881F991F75
S11304E01AF0BA95C9F714C0B13091F00E941803FC
S11304F0B1E008950C941803672F782F8827B85F0C
S113050039F0B93FCCF3869577956795B395D9F7CC
S11305103EF490958095709561957F4F8F4F9F4FD6
S11305200895E89409C097FB3EF4909580957095E2
S113053061957F4F8F4F9F4F9923A9F0F92F96E92B
S1130540BB279395F695879577956795B795F111A0
S1130550F8CFFAF4BB0F11F460FF1BC06F5F7F4F3D
S11305608F4F9F4F16C0882311F096E911C077234F
S113057021F09EE8872F762F05C0662371F096E858
S1130580862F70E060E02AF09A95660F771F881F27
S1130590DAF7880F9695879597F9089597F99F67E5
S11305A080E870E060E008959FEF80EC08950024F7
S11305B00A941616170618060906089500240A94C4
S11305C012161306140605060895092E0394000C4A
S11305D011F4882352F0BB0F40F4BF2B11F460FFD9
S11305E004C06F5F7F4F8F4F9F4F089557FD905802
S11305F0440F551F59F05F3F71F04795880F97FBE3
S1130600991F61F09F3F79F087950895121613069C
S11306101406551FF2CF4695F1DF08C016161706CB
S11306201806991FF1CF8695710561050894089500
S1130630E894BB2766277727CB0197F908950E9492
S113064032030C94E5020E94D70238F00E94DE02C5
S113065020F0952311F00C94CE020C94D4021124B2
S11306600C9419030E94F60270F3959FC1F3950F41
S113067050E0551F629FF001729FBB27F00DB11D22
S1130680639FAA27F00DB11DAA1F649F6627B00DB2
S1130690A11D661F829F2227B00DA11D621F739F9B
S11306A0B00DA11D621F839FA00D611D221F749FA9
S11306B03327A00D611D231F849F600D211D822FF0
S11306C0762F6A2F11249F5750409AF0F1F0882317
S11306D04AF0EE0FFF1FBB1F661F771F881F915044
S11306E05040A9F79E3F510580F00C94CE020C9423
S11306F019035F3FE4F3983ED4F3869577956795A5
S1130700B795F795E7959F5FC1F7FE2B880F911D6D
S10F07109695879597F90895F894FFCF0B
S9030000FC
