S01C0000466F6375736D6F746F72636F6E74726F6C6C65722E7372656393
S11300000C9434000C9446000C9446000C94460066
S11300100C9446000C9446000C9446000C94460044
S11300200C9446000C9446000C9446000C946A0010
S11300300C9446000C9446000C9446000C94460024
S11300400C9446000C9446000C9446000C94460014
S11300500C9446000C9446000C9446000C94460004
S11300600C9446000C94460011241FBECFEFD8E038
S1130070DEBFCDBF21E0A0E0B1E001C01D92AD30F4
S1130080B207E1F70E94AF000C9476030C940000D1
S113009080E590E09093890080938800EFE6F0E09B
S11300A0808182608083E1E8F0E0808189608083E0
S11300B07894259A559A569A579A20982198ECE75D
S11300C0F0E0808180648083EAE7F0E080818768E3
S11300D0808308951F920F920FB60F9211248F936D
S11300E081E0809301018F910F900FBE0F901F90BC
S11300F01895ECE7F0E08081807F8083EAE7F0E008
S1130100808180648083808186FDFDCF809178002A
S11301102091790090E0922B08955F9808955F9A5A
S11301200895811522E0920710F08FEF91E0BC0151
S113013080E090E00E947B0220E030E040EA51E45D
S11301400E94090320E030E84FEF53E40E94DA01F3
S11301502DEC3CEC4CEC5DE30E946E0108950E9492
S113016048000E948F0001E01FEFD02F809106010C
S1130170882309F45BC0109206010E9479000E9452
S1130180910020E030E040E251E40E94DA0120E0F6
S113019030E040EA52E40E94090320E030E040EA03
S11301A051E40E94DA0120E030E048E455E40E9482
S11301B009039B01AC0160E070E080E89FE30E94CA
S11301C0DA012CEA35EC47EA56E30E94DA010E9490
S11301D04C02609302017093030180930401909395
S11301E00501189B04C05E9A2D9ACD2F64C0199BFB
S11301F06EC05E982D9AC12F5EC00E948D008091C2
S1130200020190910301A0910401B0910501809332
S1130210070190930801A0930901B0930A0104C057
S11302200E948F002D98C0E0C093000180910101CD
S1130230882309F49BCF10920101809107019091CA
S11302400801A0910901B0910A010197A109B1091E
S11302508093070190930801A0930901B0930A01C8
S1130260892B8A2B8B2B91F45D9A809102019091BA
S11302700301A0910401B0910501809307019093BB
S11302800801A0930901B0930A0101C05D9880910F
S11302900B0190910C01019690930C0180930B013A
S11302A0803D974009F062CF0093060110920C0143
S11302B010920B015BCF2C2F30E080910001082EAF
S11302C0000C990B2817390709F4AECF96CF80910B
S11302D000018111A5CFC0E0A7CF5058BB27AA27A2
S11302E00E9485010C94CF020E94C10238F00E9442
S11302F0C80220F039F49F3F19F426F40C94BE028E
S11303000EF4E095E7FB0C94B802E92F0E94E0029A
S113031058F3BA17620773078407950720F079F436
S1130320A6F50C9402030EF4E0950B2EBA2FA02D23
S11303300B01B90190010C01CA01A0011124FF278E
S1130340591B99F0593F50F4503E68F11A16F04089
S1130350A22F232F342F4427585FF3CF4695379588
S11303602795A795F0405395C9F77EF41F16BA0B4D
S1130370620B730B840BBAF09150A1F0FF0FBB1FFB
S1130380661F771F881FC2F70EC0BA0F621F731F44
S1130390841F48F4879577956795B795F7959E3FA1
S11303A008F0B0CF9395880F08F09927EE0F979532
S11303B0879508950E94EE010C94CF020E94C80212
S11303C058F00E94C10240F029F45F3F29F00C94D8
S11303D0B80251110C9403030C94BE020E94E00273
S11303E068F39923B1F3552391F3951B550BBB2760
S11303F0AA2762177307840738F09F5F5F4F220FA5
S1130400331F441FAA1FA9F335D00E2E3AF0E0E89B
S113041032D091505040E695001CCAF72BD0FE2FE5
S113042029D0660F771F881FBB1F26173707480779
S1130430AB07B0E809F0BB0B802DBF01FF27935831
S11304405F4F3AF09E3F510578F00C94B8020C943B
S113045003035F3FE4F3983ED4F38695779567955D
S1130460B795F7959F5FC9F7880F911D9695879566
S113047097F90895E1E0660F771F881FBB1F621785
S113048073078407BA0720F0621B730B840BBA0B43
S1130490EE1F88F7E09508950E94E80288F09F57C0
S11304A098F0B92F9927B751B0F0E1F0660F771F94
S11304B0881F991F1AF0BA95C9F714C0B13091F08A
S11304C00E940203B1E008950C940203672F782F71
S11304D08827B85F39F0B93FCCF38695779567954F
S11304E0B395D9F73EF490958095709561957F4FBB
S11304F08F4F9F4F0895E89409C097FB3EF4909561
S11305008095709561957F4F8F4F9F4F9923A9F0E8
S1130510F92F96E9BB279395F69587957795679577
S1130520B795F111F8CFFAF4BB0F11F460FF1BC0BB
S11305306F5F7F4F8F4F9F4F16C0882311F096E94E
S113054011C0772321F09EE8872F762F05C06623FC
S113055071F096E8862F70E060E02AF09A95660FB5
S1130560771F881FDAF7880F9695879597F908956E
S113057097F99F6780E870E060E008959FEF80EC52
S1130580089500240A9416161706180609060895F5
S113059000240A9412161306140605060895092E5B
S11305A00394000C11F4882352F0BB0F40F4BF2BCA
S11305B011F460FF04C06F5F7F4F8F4F9F4F08950A
S11305C057FD9058440F551F59F05F3F71F0479500
S11305D0880F97FB991F61F09F3F79F087950895E5
S11305E0121613061406551FF2CF4695F1DF08C004
S11305F0161617061806991FF1CF86957105610521
S113060008940895E894BB2766277727CB0197F9C8
S113061008950E941C030C94CF020E94C10238F07A
S11306200E94C80220F0952311F00C94B8020C9497
S1130630BE0211240C9403030E94E00270F3959F00
S1130640C1F3950F50E0551F629FF001729FBB27C5
S1130650F00DB11D639FAA27F00DB11DAA1F649F61
S11306606627B00DA11D661F829F2227B00DA11D14
S1130670621F739FB00DA11D621F839FA00D611D9A
S1130680221F749F3327A00D611D231F849F600DBB
S1130690211D822F762F6A2F11249F5750409AF0E4
S11306A0F1F088234AF0EE0FFF1FBB1F661F771F70
S11306B0881F91505040A9F79E3F510580F00C943B
S11306C0B8020C9403035F3FE4F3983ED4F3869599
S11306D077956795B795F795E7959F5FC1F7FE2BDB
S11306E0880F911D9695879597F90895F894FFCFF3
S9030000FC
